:020000040000fa
:080000000002040000000000f2
:020000040000fa
:04000800a40300004d
:020000040000fa
:04000c0004030000e9
:020000040000fa
:0400100046030000a3
:020000040000fa
:0400140024030000c1
:020000040000fa
:04001800660300007b
:020000040000fa
:04001c00a403000039
:020000040000fa
:04002000a403000035
:020000040000fa
:04002400a403000031
:020000040000fa
:04002800a40300002d
:020000040000fa
:04002c00a403000029
:020000040000fa
:04003000a403000025
:020000040000fa
:04003400a403000021
:020000040000fa
:04003800a40300001d
:020000040000fa
:04003c00a403000019
:020000040000fa
:04004000a403000015
:020000040000fa
:04004400a403000011
:020000040000fa
:04004800a40300000d
:020000040000fa
:04004c00a403000009
:020000040000fa
:04005000a403000005
:020000040000fa
:04005400a403000001
:020000040000fa
:04005800a4030000fd
:020000040000fa
:04005c00a4030000f9
:020000040000fa
:04006000a4030000f5
:020000040000fa
:04006400a4030000f1
:020000040000fa
:04006800a4030000ed
:020000040000fa
:04006c00a4030000e9
:020000040000fa
:04007000a4030000e5
:020000040000fa
:04007400a4030000e1
:020000040000fa
:0400780086030000fb
:020000040000fa
:04007c00a4030000d9
:020000040000fa
:04008000a4030000d5
:020000040000fa
:04008400a4030000d1
:020000040000fa
:04008800a4030000cd
:020000040000fa
:04008c00a4030000c9
:020000040000fa
:04009000a4030000c5
:020000040000fa
:04009400a4030000c1
:020000040000fa
:04009800a4030000bd
:020000040000fa
:04009c00a4030000b9
:020000040000fa
:0400a000a4030000b5
:020000040000fa
:0400a400a4030000b1
:020000040000fa
:0400a800a4030000ad
:020000040000fa
:0400ac00a4030000a9
:020000040000fa
:0400b000a4030000a5
:020000040000fa
:0400b400a4030000a1
:020000040000fa
:0400b800a40300009d
:020000040000fa
:0400bc00a403000099
:020000040000fa
:0400c000a403000095
:020000040000fa
:0400c400a403000091
:020000040000fa
:0400c800a40300008d
:020000040000fa
:0400cc00a403000089
:020000040000fa
:0400d000a403000085
:020000040000fa
:0400d400a403000081
:020000040000fa
:0400d800a40300007d
:020000040000fa
:0400dc00a403000079
:020000040000fa
:0400e000a403000075
:020000040000fa
:0400e400a403000071
:020000040000fa
:0400e800a40300006d
:020000040000fa
:0400ec00a403000069
:020000040000fa
:0400f000a403000065
:020000040000fa
:0400f400a403000061
:020000040000fa
:0400f800a40300005d
:020000040000fa
:0400fc00a403000059
:020000040000fa
:04010000a403000054
:020000040000fa
:04010400a403000050
:020000040000fa
:04010800a40300004c
:020000040000fa
:04010c00a403000048
:020000040000fa
:04011000a403000044
:020000040000fa
:04011400a403000040
:020000040000fa
:04011800a40300003c
:020000040000fa
:04011c00a403000038
:020000040000fa
:04012000a403000034
:020000040000fa
:04012400a403000030
:020000040000fa
:04012800a40300002c
:020000040000fa
:04012c00a403000028
:020000040000fa
:04013000a403000024
:020000040000fa
:04013400a403000020
:020000040000fa
:04013800a40300001c
:020000040000fa
:04013c00a403000018
:020000040000fa
:04014000a403000014
:020000040000fa
:04014400a403000010
:020000040000fa
:04014800a40300000c
:020000040000fa
:04014c00a403000008
:020000040000fa
:04015000a403000004
:020000040000fa
:04015400a403000000
:020000040000fa
:04015800a4030000fc
:020000040000fa
:04015c00a4030000f8
:020000040000fa
:04016000a4030000f4
:020000040000fa
:04016400a4030000f0
:020000040000fa
:04016800a4030000ec
:020000040000fa
:04016c00a4030000e8
:020000040000fa
:04017000a4030000e4
:020000040000fa
:04017400a4030000e0
:020000040000fa
:04017800a4030000dc
:020000040000fa
:04017c00a4030000d8
:020000040000fa
:04018000a4030000d4
:020000040000fa
:04018400a4030000d0
:020000040000fa
:04018800a4030000cc
:020000040000fa
:04018c00a4030000c8
:020000040000fa
:04019000a4030000c4
:020000040000fa
:04019400a4030000c0
:020000040000fa
:04019800a4030000bc
:020000040000fa
:04019c00a4030000b8
:020000040000fa
:0401a000a4030000b4
:020000040000fa
:0401a400a4030000b0
:020000040000fa
:0401a800a4030000ac
:020000040000fa
:0401ac00a4030000a8
:020000040000fa
:0401b000a4030000a4
:020000040000fa
:0401b400a4030000a0
:020000040000fa
:0401b800a40300009c
:020000040000fa
:0401bc00a403000098
:020000040000fa
:0401c000a403000094
:020000040000fa
:0401c400a403000090
:020000040000fa
:0401c800a40300008c
:020000040000fa
:0401cc00a403000088
:020000040000fa
:0401d000a403000084
:020000040000fa
:0401d400a403000080
:020000040000fa
:0401d800a40300007c
:020000040000fa
:0401dc00a403000078
:020000040000fa
:0401e000a403000074
:020000040000fa
:0401e400a403000070
:020000040000fa
:0401e800a40300006c
:020000040000fa
:0401ec00a403000068
:020000040000fa
:0401f000a403000064
:020000040000fa
:0401f400a403000060
:020000040000fa
:0401f800a40300005c
:020000040000fa
:0401fc00a403000058
:020000040000fa
:04020800a40300004b
:020000040000fa
:04020c0004030000e7
:020000040000fa
:0402100046030000a1
:020000040000fa
:0402140024030000bf
:020000040000fa
:040218006603000079
:020000040000fa
:04021c00a403000037
:020000040000fa
:04022000a403000033
:020000040000fa
:04022400a40300002f
:020000040000fa
:04022800a40300002b
:020000040000fa
:04022c00a403000027
:020000040000fa
:04023000a403000023
:020000040000fa
:04023400a40300001f
:020000040000fa
:04023800a40300001b
:020000040000fa
:04023c00a403000017
:020000040000fa
:04024000a403000013
:020000040000fa
:04024400a40300000f
:020000040000fa
:04024800a40300000b
:020000040000fa
:04024c00a403000007
:020000040000fa
:04025000a403000003
:020000040000fa
:04025400a4030000ff
:020000040000fa
:04025800a4030000fb
:020000040000fa
:04025c00a4030000f7
:020000040000fa
:04026000a4030000f3
:020000040000fa
:04026400a4030000ef
:020000040000fa
:04026800a4030000eb
:020000040000fa
:04026c00a4030000e7
:020000040000fa
:04027000a4030000e3
:020000040000fa
:04027400a4030000df
:020000040000fa
:0402780086030000f9
:020000040000fa
:04027c00a4030000d7
:020000040000fa
:04028000a4030000d3
:020000040000fa
:04028400a4030000cf
:020000040000fa
:04028800a4030000cb
:020000040000fa
:04028c00a4030000c7
:020000040000fa
:04029000a4030000c3
:020000040000fa
:04029400a4030000bf
:020000040000fa
:04029800a4030000bb
:020000040000fa
:04029c00a4030000b7
:020000040000fa
:0402a000a4030000b3
:020000040000fa
:0402a400a4030000af
:020000040000fa
:0402a800a4030000ab
:020000040000fa
:0402ac00a4030000a7
:020000040000fa
:0402b000a4030000a3
:020000040000fa
:0402b400a40300009f
:020000040000fa
:0402b800a40300009b
:020000040000fa
:0402bc00a403000097
:020000040000fa
:0402c000a403000093
:020000040000fa
:0402c400a40300008f
:020000040000fa
:0402c800a40300008b
:020000040000fa
:0402cc00a403000087
:020000040000fa
:0402d000a403000083
:020000040000fa
:0402d400a40300007f
:020000040000fa
:0402d800a40300007b
:020000040000fa
:0402dc00a403000077
:020000040000fa
:0402e000a403000073
:020000040000fa
:0402e400a40300006f
:020000040000fa
:0402e800a40300006b
:020000040000fa
:0402ec00a403000067
:020000040000fa
:0402f000a403000063
:020000040000fa
:0402f400a40300005f
:020000040000fa
:0402f800a40300005b
:020000040000fa
:0402fc00a403000057
:020000040000fa
:04030000a403000052
:020000040000fa
:04030400a40300004e
:020000040000fa
:04030800a40300004a
:020000040000fa
:04030c00a403000046
:020000040000fa
:04031000a403000042
:020000040000fa
:04031400a40300003e
:020000040000fa
:04031800a40300003a
:020000040000fa
:04031c00a403000036
:020000040000fa
:04032000a403000032
:020000040000fa
:04032400a40300002e
:020000040000fa
:04032800a40300002a
:020000040000fa
:04032c00a403000026
:020000040000fa
:04033000a403000022
:020000040000fa
:04033400a40300001e
:020000040000fa
:04033800a40300001a
:020000040000fa
:04033c00a403000016
:020000040000fa
:04034000a403000012
:020000040000fa
:04034400a40300000e
:020000040000fa
:04034800a40300000a
:020000040000fa
:04034c00a403000006
:020000040000fa
:04035000a403000002
:020000040000fa
:04035400a4030000fe
:020000040000fa
:04035800a4030000fa
:020000040000fa
:04035c00a4030000f6
:020000040000fa
:04036000a4030000f2
:020000040000fa
:04036400a4030000ee
:020000040000fa
:04036800a4030000ea
:020000040000fa
:04036c00a4030000e6
:020000040000fa
:04037000a4030000e2
:020000040000fa
:04037400a4030000de
:020000040000fa
:04037800a4030000da
:020000040000fa
:04037c00a4030000d6
:020000040000fa
:04038000a4030000d2
:020000040000fa
:04038400a4030000ce
:020000040000fa
:04038800a4030000ca
:020000040000fa
:04038c00a4030000c6
:020000040000fa
:04039000a4030000c2
:020000040000fa
:04039400a4030000be
:020000040000fa
:04039800a4030000ba
:020000040000fa
:04039c00a4030000b6
:020000040000fa
:0403a000a4030000b2
:020000040000fa
:0403a400a4030000ae
:020000040000fa
:0403a800a4030000aa
:020000040000fa
:0403ac00a4030000a6
:020000040000fa
:0403b000a4030000a2
:020000040000fa
:0403b400a40300009e
:020000040000fa
:0403b800a40300009a
:020000040000fa
:0403bc00a403000096
:020000040000fa
:0403c000a403000092
:020000040000fa
:0403c400a40300008e
:020000040000fa
:0403c800a40300008a
:020000040000fa
:0403cc00a403000086
:020000040000fa
:0403d000a403000082
:020000040000fa
:0403d400a40300007e
:020000040000fa
:0403d800a40300007a
:020000040000fa
:0403dc00a403000076
:020000040000fa
:0403e000a403000072
:020000040000fa
:0403e400a40300006e
:020000040000fa
:0403e800a40300006a
:020000040000fa
:0403ec00a403000066
:020000040000fa
:0403f000a403000062
:020000040000fa
:0403f400a40300005e
:020000040000fa
:0403f800a40300005a
:020000040000fa
:0403fc00a403000056
:020000040000fa
:100400002f8220000e7f22000e01880000000000d5
:10041000000020000000e000020032000001200087
:100420002002880014000700c90007000000e00057
:1004300003003a00c06f20000100200002003700d6
:100440000000200001002000810f70000100320038
:1004500014000700000020000000e000020032004d
:1004600000000200000000000c0702000000000075
:100470000040da000000fe004440a90020002000f7
:100480000000e0000300320010002000900188000e
:100490004440a800000006008a1f78008b1f7800e7
:1004a00000000600a1028800800478000000eb0034
:1004b0001f003700e284440054a0b4009905ba003c
:1004c000e284440054a0b4009906ba00e2844400d7
:1004d00054a0b4000006eb00476fde00fd07b20039
:1004e000ae018800636ce10003003a00eaff0700f8
:1004f0000000eb000e003700606ce10008003a00dd
:10050000004deb000a05e800020039003420ec0041
:100510000af0a0008b05e900f9ff3e000400370057
:100520006168e100010032000086eb000b0007006b
:1005300019c7ba001905ba000e04e00003003a001a
:100540000a00e000dbff3a0000000600fe07b200f0
:10055000ae0288008a047800f5ff37000cd0a300b3
:10056000e20f4d001c00390089027800354dba00b9
:100570000a05e800020039003420ec000af0a0006f
:100580008b05e9000f003200254dba000a05e8008e
:10059000020039003420ec000af0a0008b05e900cd
:1005a000080032000c00e0000600320015cdba0051
:1005b0000a05e800020039003420ec000af0a0002f
:1005c0008b05e9008984e80054a0b4000b00e0002a
:1005d000e2ff3a00000006009902ba00055d7800cb
:1005e0008b05e900f7ff3200c82ade00055d7800c0
:1005f0008b05e900f3ff32000c00e000f1ff320050
:1006000019ddba00eeff37003600f800809fbe000b
:10061000829fbe00849fbe00869fbe000000fa003d
:100620008020a9000000eb00cd0107000080fa0047
:100630004f03be004f02be004f01be004f00be0080
:100640003600f900004006003600f800809fbe002a
:10065000829fbe00849fbe00869fbe000000fa00fd
:10066000c40107008040a90010002000bc01070061
:100670000080fa004f03be004f02be004f01be00d3
:100680004f00be003600f900004006003600f800ba
:10069000809fbe00829fbe00849fbe00869fbe00da
:1006a0000000fa008060a90020002000ac010700d3
:1006b0000080fa004f03be004f02be004f01be0093
:1006c0004f00be003600f900004006003600f8007a
:1006d000809fbe00829fbe00849fbe00869fbe009a
:1006e0000000fa008080a900300020009c01070073
:1006f0000080fa004f03be004f02be004f01be0053
:100700004f00be003600f900004006003600f80039
:10071000809fbe00829fbe00849fbe00869fbe0059
:100720000000fa00a30107008680a9000080fa00fb
:100730004f03be004f02be004f01be004f00be007f
:100740003600f900004006000040da000000fe001c
:0407500000000500a0
:020000040000fa
:100754000000fa000223ef000423ef000823ef0057
:100764001023ef001423ef001623ef001823ef00eb
:100774001a23ef0010022800001888000080fa00f5
:10078400000006000400fa00000f7800110798002a
:100794000000000040188000620060000000e000db
:1007a400fcff3a001e007800104078000080fb0037
:1007b400601888000000000041188000000220003a
:1007c400008060000000e000fbff3a006018800039
:1007d400804078001e009000014878000080fa00f4
:1007e400000006001800fa00100f9800210f98006e
:1007f400320f98000000eb00000f78000000eb00bf
:10080400100798000000eb00700798000000eb0050
:10081400000f980010002000600798001e08900048
:100824000000e00005003a000000eb0050079800cb
:10083400700047002007980004003700ee00900085
:10084400510798009e089000210798003e089000e8
:100854000000e00005003a000000eb0040079800ab
:100864006e0047003007980005003700ee00900046
:1008740041079800be08900031079800000000006e
:1008840040188000620060000000e000fcff3a00b5
:100894001d00370040188000620060000000e00086
:1008a40009003a002e009000104078000080fb0000
:1008b40060188800ae0090005e0090000080400048
:1008c400200798001e0fe800411880000002200055
:1008d400008060000000e0000b003a006018800017
:1008e400804078003e00900001487800be009000ef
:1008f4004e00900000804000300798001e009000d9
:100904000000e800100798002e0890009e00780070
:10091400808f5000dfff390010003700411880003d
:1009240000022000008060000000e0000b003a009c
:1009340060188000804078003e00900001487800f4
:10094400be0090004e0090000080400030079800e8
:100954001e0090000000e800100798009e00900020
:100964002e089000808f5000ecff39001e007800a4
:100974000080fa00000006000400fa0020479800f6
:100984000e80e8008e0078007eff07001e4078008d
:100994000080fa00000006000600fa00000f78004c
:1009a40011079800220798002e0190009e009000e5
:1009b4001e0078008bff07000080fa00000006008c
:1009c4000000fa0001188000008020000080600010
:1009d4000000e00002003200200020000800370080
:1009e4000118800000402000008060000000e0004a
:1009f4000200320010002000010037000000eb006c
:100a04000080fa00000006000000fa004018800090
:100a14000080fa00000006000000fa0080002000b8
:100a2400002888000225ef003010200040288800ac
:100a34000a25ef000c25ef000e25ef001025ef002e
:100a44001225ef001425ef0001e5a8000345a800d6
:100a54000080fa00000006000000fa000000000018
:100a640010288000610060000000e000fcff3200fc
:100a740010288000620060000000e00001003200e5
:100a84000225a90030288000004078000080fa0088
:100a9400000006000200fa00004f78000000000089
:100aa4001128800000202000008060000000e00089
:100ab400fbff3a001e80fb00202888000080fa001b
:100ac400000006000000fa001028800000407800b2
:100ad400614060000080fb0000f0a7000000ea0015
:100ae4000000ea004f00de00004078000080fa00b9
:100af400000006000000fa001128800000202000f9
:100b0400008060000000e00007003a001128800027
:100b140000402000008060000000e000020032007d
:100b240010002000010037000000eb0000407800b6
:100b34000080fa00000006000000fa00102880007f
:100b44004800de00614060000080fb0000f0a70068
:100b54000000ea000000ea004f00de0000407800d8
:100b64000080fa00000006000000fa00102880004f
:100b74000080fa00000006000000fa0001e5a80069
:100b84000345a8000080fa00000006000000fa00f7
:100b940001e5a9000345a9000080fa000000060051
:100ba4000000fa008421ef0000802000700c88000f
:100bb40070012000000c8800f0572900500c8800b8
:100bc4005620ef005820ef005a20ef006e20ef006f
:100bd4007020ef007220ef008621ef009021ef00db
:100be40030002000400c8800c0002100900c8800d8
:100bf40001088000f00b20000081600060042000e8
:100c04007105200003102000804978008149780094
:100c140082497800211f800000fc2f0000806000c2
:100c24007000b300201f8800f11e8000f00f2c001c
:100c34000080600000b0a000f01e8800611c8000ed
:100c4400f00f2c000080600000b0a000601c880041
:100c5400a11d800000fc2f0000806000f000b300a4
:100c6400a01d880000088000000178000260a00038
:100c740060042000710520000310200080497800e2
:100c840081497800824978000080fa00000006005b
:100c94000000fa0000102300100888000621ef006d
:100ca4006821ef006a21ef006e21ef007021ef0050
:100cb4007221ef007421ef007621ef007a21ef001a
:100cc4007c21ef007e21ef0022002000800720001d
:100cd400a109200013102000804978008149780080
:100ce400824978000001eb006004200071052000b7
:100cf40003102000804978008149780082497800f7
:100d04000080fa00000006000000fa0001088000dc
:100d1400f00b2000008160006004200071052000b9
:100d240003102000804978008149780082497800c6
:100d340000088000000178000260a0006004200028
:100d44007105200003102000804978008149780053
:100d5400824978000080fa00000006000200fa00d0
:100d6400000f78009e00780001408800ffff3700e4
:100d74000000fa002080200080077800a081200075
:100d8400000188000080fa00000006000000fa005c
:100d940083ff0700beff07000e0007006cfe07007c
:100da4001dff0700050007000080fa000000060090
:100db4000000fa000080fa00000006000000fa00bb
:100dc4008680a9008220a9009680a8000080fa00ed
:100dd400000006000000fa007105800080ff2f006b
:100de400008060000000a000700588000080fa0008
:040df40000000600f5
:020000040000fa
:100df8000208000020000000800000000008000039
:100e08000200000082000000ffff00000000000058
:020000040000fa
:100e18000000fa00dcff0700baff07004bfe0700de
:0c0e28001000200056fe0700fdff370000
:020000040000fa
:020000040002f8
:04aff000fff300006b
:020000040000fa
:020000040002f8
:04aff400fffe00005c
:020000040000fa
:020000040002f8
:04aff8005e320000c5
:020000040000fa
:020000040002f8
:04affc003f3f0000d3
:00000001FF
